:020000040000fa
:080000000001040000000000f3
:020000040000fa
:0400080044020000ae
:020000040000fa
:04000c0044020000aa
:020000040000fa
:0400100044020000a6
:020000040000fa
:0400140044020000a2
:020000040000fa
:04001800440200009e
:020000040000fa
:04001c00440200009a
:020000040000fa
:040020004402000096
:020000040000fa
:040024004402000092
:020000040000fa
:04002800440200008e
:020000040000fa
:04002c00440200008a
:020000040000fa
:040030004402000086
:020000040000fa
:040034004402000082
:020000040000fa
:04003800440200007e
:020000040000fa
:04003c00440200007a
:020000040000fa
:040040004402000076
:020000040000fa
:040044004402000072
:020000040000fa
:04004800440200006e
:020000040000fa
:04004c00440200006a
:020000040000fa
:040050001802000092
:020000040000fa
:04005400ee010000b9
:020000040000fa
:04005800440200005e
:020000040000fa
:04005c00440200005a
:020000040000fa
:040060004402000056
:020000040000fa
:04006400c8010000cf
:020000040000fa
:04006800440200004e
:020000040000fa
:04006c00440200004a
:020000040000fa
:040070004402000046
:020000040000fa
:040074004402000042
:020000040000fa
:04007800440200003e
:020000040000fa
:04007c00440200003a
:020000040000fa
:040080004402000036
:020000040000fa
:040084004402000032
:020000040000fa
:04008800440200002e
:020000040000fa
:04008c00440200002a
:020000040000fa
:040090004402000026
:020000040000fa
:040094004402000022
:020000040000fa
:04009800440200001e
:020000040000fa
:04009c00440200001a
:020000040000fa
:0400a0004402000016
:020000040000fa
:0400a4004402000012
:020000040000fa
:0400a800440200000e
:020000040000fa
:0400ac00440200000a
:020000040000fa
:0400b0004402000006
:020000040000fa
:0400b4004402000002
:020000040000fa
:0400b80044020000fe
:020000040000fa
:0400bc0044020000fa
:020000040000fa
:0400c00044020000f6
:020000040000fa
:0400c40044020000f2
:020000040000fa
:0400c80044020000ee
:020000040000fa
:0400cc0044020000ea
:020000040000fa
:0400d00044020000e6
:020000040000fa
:0400d40044020000e2
:020000040000fa
:0400d80044020000de
:020000040000fa
:0401080044020000ad
:020000040000fa
:04010c0044020000a9
:020000040000fa
:0401100044020000a5
:020000040000fa
:0401140044020000a1
:020000040000fa
:04011800440200009d
:020000040000fa
:04011c004402000099
:020000040000fa
:040120004402000095
:020000040000fa
:040124004402000091
:020000040000fa
:04012800440200008d
:020000040000fa
:04012c004402000089
:020000040000fa
:040130004402000085
:020000040000fa
:040134004402000081
:020000040000fa
:04013800440200007d
:020000040000fa
:04013c004402000079
:020000040000fa
:040140004402000075
:020000040000fa
:040144004402000071
:020000040000fa
:04014800440200006d
:020000040000fa
:04014c004402000069
:020000040000fa
:040150001802000091
:020000040000fa
:04015400ee010000b8
:020000040000fa
:04015800440200005d
:020000040000fa
:04015c004402000059
:020000040000fa
:040160004402000055
:020000040000fa
:04016400c8010000ce
:020000040000fa
:04016800440200004d
:020000040000fa
:04016c004402000049
:020000040000fa
:040170004402000045
:020000040000fa
:040174004402000041
:020000040000fa
:04017800440200003d
:020000040000fa
:04017c004402000039
:020000040000fa
:040180004402000035
:020000040000fa
:040184004402000031
:020000040000fa
:04018800440200002d
:020000040000fa
:04018c004402000029
:020000040000fa
:040190004402000025
:020000040000fa
:040194004402000021
:020000040000fa
:04019800440200001d
:020000040000fa
:04019c004402000019
:020000040000fa
:0401a0004402000015
:020000040000fa
:0401a4004402000011
:020000040000fa
:0401a800440200000d
:020000040000fa
:0401ac004402000009
:020000040000fa
:0401b0004402000005
:020000040000fa
:0401b4004402000001
:020000040000fa
:0401b80044020000fd
:020000040000fa
:0401bc0044020000f9
:020000040000fa
:0401c00044020000f5
:020000040000fa
:0401c40044020000f1
:020000040000fa
:0401c80044020000ed
:020000040000fa
:0401cc0044020000e9
:020000040000fa
:0401d00044020000e5
:020000040000fa
:0401d40044020000e1
:020000040000fa
:0401d80044020000dd
:020000040000fa
:10020000ef8120000e9f20000e01880000000000fa
:10021000000020000000e000020032000001200089
:100220002002880014000700990007000000e00089
:1002300003003a00c0422000010020000200370005
:100240000000200001002000810f7000010032003a
:1002500014000700000020000000e000020032004f
:1002600000000200000000006e0302000000000019
:100270000040da000000fe004440a9000000200019
:100280000000e0000300320000002000a001880010
:100290004440a800000006008a1f78008b1f7800e9
:1002a0000000060091018800800478000000eb0047
:1002b0001a003700e284440032a0b4009905ba0065
:1002c000e284440032a0b4009906ba00e2844400fb
:1002d00032a0b4000006eb00476fde00fd07b2005d
:1002e000636ce10003003a00ebff07000000eb0045
:1002f0000a003700606ce10004003a00005deb008a
:100300008b05e900fdff3e00040037006168e10055
:10031000010032000086eb000b00070019c7ba008d
:100320001905ba000e04e00003003a000a00e000dc
:10033000e0ff3a0000000600fe07b2009e018800c0
:100340008a047800f5ff3700395dba008b05e900b3
:100350000c003200295dba008b05e900080032006c
:100360000c00e00003003a00e284440032a0b40034
:10037000f5ff370019ddba008b05e900faff3a00f6
:100380008904e800e184440032a0b40000000600c3
:10039000809fbe000000fa0085e0a90041168000a1
:1003a0008003200000806000c0408800c0408000c2
:1003b0004300de00c0408800c04080008000400054
:1003c000008020000080400010007800a00e88000f
:1003d0000080fa004f00be0000400600809fbe0073
:1003e0003400f80000002000a00188000000fa009e
:1003f0008560a9009140800000102000008060000e
:100400000000e0000600320000148000b00e8800fa
:10041000b00e8000c00e8800b00e8000d00e8800a4
:100420000080fa003400f9004f00be0000400600d2
:10043000801f78000200fa007010800062006000e7
:100440000000e000020032000e22a9000a0037007e
:1004500070108000640060000000e00006003a00b8
:1004600070108000680060000000e00002003a00a8
:1004700090108000004f78008520a9000080fa00cd
:100480004f007800004006000040da000000fe0047
:1004900000000500839f68000100e00002003d00ad
:1004a00060001000e08018000300e00002003d0042
:1004b00060011100e0811900050007004f00e00015
:1004c00002003b0060001000e08018000000060001
:1004d0006022b800060220000000d0008180d20017
:1004e0000482d2008582d2000000a00002025200e5
:1004f00083825a00030031000202420083824a00d4
:100500000000a1000603e900f3ff3a000000060026
:020000040000fa
:100510000000fa00000e200000068800000e2000f7
:100520002006880085e0a9008de0a8000080fa0080
:10053000000006000000fa0080ff2f004015880030
:1005400040062000001588000020200010158800bb
:1005500020002000301588000008200020158800a9
:100560008560a9008d60a800a1e2a8000080fa00c3
:10057000000006000000fa00e0168000e016880087
:10058000c116800000fc2f0001007000c01688001a
:1005900000272000200e880000702000400e8800f8
:1005a000d421ef0040062000b00e88004006200055
:1005b000c00e880040062000d00e8800200e80006b
:1005c000300e880000f02000500e88000000280047
:1005d000000e88000080fa00000006000000fa000b
:1005e0000080fa00000006000000fa00000320006e
:1005f000900888000a21ef00000028007008880099
:100600000080fa00000006000200fa00e1408000cd
:10061000809d2500808f500011003e00e04080004a
:100620000000e00007003200e04080008000eb00a6
:100630000001be0080322c003102200095ff07002f
:10064000000f7800d04080001e004000d04088009d
:10065000d04080000000d100d04088000100370069
:10066000000000000080fa00000006000400fa000c
:100670008e80e80080087800080037000000eb005a
:10068000000f7800010037001e0fe800703e2000c8
:100690009e007800808f5000fbff36000e80e8003f
:1006a0001000780000f0a7000000ea000000ea0057
:1006b0004f00de00004078008e80e8009100780056
:1006c0000101e9008e80e800820878000004e00063
:1006d000eaff3a000080fa00000006000000fa007d
:1006e0008bff0700a3ff0700bfff0700000000000b
:1006f0007116800000002400008060000000e0000f
:10070000fbff3a0002003700a0002000d7ff0700df
:100710007116800000002400008060000000e000ee
:10072000f9ff320041168000800320000080600045
:10073000c0408800c04080004300de00c040880008
:10074000c040800080004000008020000080400009
:1007500010007800a00e880070772000400e8800fe
:100760001308a80011003700711680000000240053
:10077000008060000000e0000c003a0000702000e3
:10078000400e8800d421ef001308a90002003700b2
:10079000a0002000b5ff07007116800000002400b3
:1007a000008060000000e000f9ff3200914080000e
:1007b00000102000008060000000e000eaff3a0026
:1007c00000000000caff37000000fa000c02a90078
:1007d0006110800090ff2f00008060006010880092
:1007e0000ca2a90000042000a01088007110800055
:1007f000f0f32f0000806000701088008d20a800aa
:100800000fe2a9008d40a8000de2a8000f42a80049
:100810000080fa00000006000200fa00004f780095
:100820001e00fb00801088000080fa000000060017
:100830000400fa00000f78000e80e80001487800fc
:100840000080fa00000006000000fa000040eb0003
:080850000080fa000000060020
:020000040000fa
:100858000008000010000000020000000000100066
:100868000204200004020100081008000120000012
:1008780000000000100800000e000000000000004a
:04088800000000006c
:00000001FF
